S00E000052435F4341522E737265634C
S11300000C9434000C9402010C9451000C94510093
S11300100C9451000C9451000C9451000C94510018
S11300200C9451000C9451000C9451000C94510008
S11300300C9451000C9451000C9451000C945100F8
S11300400C9451000C9451000C943D030C945100F9
S11300500C9451000C9451000C9451000C945100D8
S11300600C9451000C94510011241FBECFEFD8E022
S1130070DEBFCDBF11E0A0E0B1E0E2ECF8E002C0E9
S113008005900D92A230B107D9F721E0A2E0B1E0CA
S113009001C01D92A031B207E1F70E9448010C94FF
S11300A05F040C94000084B5836084BD84B58068CB
S11300B084BD84B5806284BD85B5826085BDE0EB76
S11300C0F0E0808183608083808180688083808188
S11300D080628083E1EBF0E0808182608083089518
S11300E090930B0180930A014EE1489F9001499F30
S11300F0300D1124C9016FEF70E00E94C1037093A9
S11301000901609308010895EAE0F1E0808187BD68
S1130110808188BD80818093B30080818093B40006
S1130120559A239A8AB1877B8AB90895EAE0F1E067
S1130130808187BD808188BD80818093B300808168
S11301408093B40055982398569A539A0895EAE0F8
S1130150F1E0808187BD808188BD80818093B30078
S113016080818093B4005598239A569853980895A3
S1130170EAE0F1E0808187BD808188BD8081809341
S1130180B30080818093B400559A239856980895BB
S113019020910A0130910B014BE4429FC001439F1F
S11301A0900D112464E670E00E94C10367BDEAE08B
S11301B0F1E0808188BD80818093B3008081809349
S11301C0B400559A239A8AB1877B8AB908952398F3
S11301D055988AB1877B8AB9089552983D9A83EDE0
S11301E090E30197F1F700C00000E89AE9E6F0E037
S11301F08081816080830895459A85E08A95F1F72E
S1130200459808951F920F920FB60F9211248F9361
S11302109F93AF93BF93EF93FF93809102019091CB
S113022003010197C9F4E1E8F0E080818E7F8083C7
S1130230E4E8F0E080819181A0E0B0E080930401E3
S113024090930501A0930601B093070111821082D7
S11302501092030110920201809102019091030116
S1130260892B59F4E1E8F0E080818160808381E0AA
S113027090E09093030180930201FF91EF91BF916D
S1130280AF919F918F910F900FBE0F901F90189573
S1130290CF93DF93CDB7DEB760970FB6F894DEBF88
S11302A00FBECDBF0E94530060E472E480E895E283
S11302B00E9431038FEF90E00E9470000E94ED00D5
S11302C0E0E8F0E0808182608083A1E8B0E08C9176
S11302D088618C938C9181608C9380E29EE49093EE
S11302E0870080938600808180688083219A789437
S11302F00F2EFAE38F2E912CA12CB12CF02D0F2E62
S1130300FAE04F2E512C612C712CF02D0F2EF8E8B1
S1130310EF2EF12CF02D0F2EFCEDCF2EF5E0DF2E7D
S1130320F02D6894222427F8312C10920C0110929D
S11303300D0110920E0110920F010AE010E00E94CC
S1130340FC00609104017091050180910601909177
S11303500701A50194010E94F70380910C0190917B
S11303600D01A0910E01B0910F01820F931FA41FE4
S1130370B51F80930C0190930D01A0930E01B093CF
S11303800F0183EC99E00197F1F700C000000150E0
S11303901109A9F660910C0170910D0180910E0173
S11303A090910F01A30192010E94D503DA01C901C2
S11303B020930C0130930D0140930E0150930F01D3
S11303C04AE0BE016F5F7F4F0E942A04CE0101966E
S11303D00E94B2038AE00E94AA03F701D182C0827C
S11303E0809100018111A1CF80910C0190910D01A8
S11303F0A0910E01B0910F014E97A105B10508F02F
S113040094CF0E94E700F101808182608083E1E85B
S1130410F0E080818861808380818160808380E2D4
S11304209EE4E6E8F0E091838083F10180818068B6
S11304308083219A80E293E0F701918380839FE394
S1130440EDE0F3E09150E040F040E1F700C000003F
S113045010920C0110920D0110920E0110920F01D6
S11304600AE010E00E94FC00609104017091050113
S11304708091060190910701A50194010E94F70360
S113048080910C0190910D01A0910E01B0910F018A
S1130490820F931FA41FB51F80930C0190930D012D
S11304A0A0930E01B0930F0183EC99E00197F1F74B
S11304B000C0000001501109A9F660910C0170916F
S11304C00D0180910E0190910F01A30192010E94F0
S11304D0D503DA01C90120930C0130930D01409337
S11304E00E0150930F014AE0BE016F5F7F4F0E94DF
S11304F02A04CE0101960E94B2038AE00E94AA0354
S113050080910C0190910D01A0910E01B0910F0109
S1130510C397A105B105C8F08FEF90E00E94700069
S11305200E94B8009FE9E6E8F1E09150E040F04015
S1130530E1F700C0000086E990E00E9470000E948C
S1130540E70021E020930001F0CE88E998E0F7016C
S1130550918380839FE3EDE0F3E09150E040F0402D
S1130560E1F700C0000010920C0110920D011092EE
S11305700E0110920F010AE010E00E94FC0060914D
S11305800401709105018091060190910701A50174
S113059094010E94F70380910C0190910D01A091A8
S11305A00E01B0910F01820F931FA41FB51F8093FA
S11305B00C0190930D01A0930E01B0930F0183ECF5
S11305C099E00197F1F700C0000001501109A9F664
S11305D060910C0170910D0180910E0190910F01B9
S11305E0A30192010E94D503DA01C90120930C01F1
S11305F030930D0140930E0150930F014AE0BE0168
S11306006F5F7F4F0E942A04CE0101960E94B203BD
S11306108AE00E94AA0380910C0190910D01A0919F
S11306200E01B0910F01C397A105B10508F47DCE69
S11306308FEF90E00E9470000E94A7009FE9E6E817
S1130640F1E09150E040F040E1F700C0000086E99D
S113065090E00E9470000E94E70021E020930001D6
S113066064CE82E08093C00088E98093C1008CE06E
S11306708093C4001092C50008951F920F920FB684
S11306800F9211242F933F934F935F936F937F9314
S11306908F939F93AF93BF93EF93FF938091C60083
S11306A0809301018091010140910C0150910D0151
S11306B060910E0170910F014F3151056105710573
S11306C0B0F18D3431F48091C60090E00E94700046
S11306D030C0863429F40E9484001092000129C09D
S11306E0823429F40E9496001092000122C08235BF
S11306F029F40E94B800109200011BC08C3429F424
S11307000E94A7001092000114C0833531F40E94A6
S1130710E70081E0809300010CC0893419F40E9441
S1130720C80007C0853429F40E94C80002C00E9492
S1130730E700FF91EF91BF91AF919F918F917F91CE
S11307406F915F914F913F912F910F900FBE0F903A
S11307501F901895E0ECF0E0908195FFFDCF809319
S1130760C6000895CF93DF93EC018881882331F08C
S113077021960E94AA0389918111FBCFDF91CF9129
S1130780089597FB072E16F4009407D077FD09D03F
S11307900E94160407FC05D03EF4909581959F4F66
S11307A00895709561957F4F0895A1E21A2EAA1BB2
S11307B0BB1BFD010DC0AA1FBB1FEE1FFF1FA2170D
S11307C0B307E407F50720F0A21BB30BE40BF50B0A
S11307D0661F771F881F991F1A9469F76095709593
S11307E0809590959B01AC01BD01CF010895052E24
S11307F097FB1EF400940E940E0457FD07D00E943C
S1130800D50307FC03D04EF40C940E045095409588
S1130810309521953F4F4F4F5F4F089590958095A8
S1130820709561957F4F8F4F9F4F0895AA1BBB1BF7
S113083051E107C0AA1FBB1FA617B70710F0A61BDC
S1130840B70B881F991F5A95A9F780959095BC01FD
S1130850CD010895BB274A3031F4992322F4BDE237
S1130860909581959F4F0C943604BB27FB01552727
S1130870AA27880F991FAA1FA41710F0A41B8395F9
S11308805051B9F7A05DAA3308F0A95DA193009770
S113089079F7B111B1931192CB010C944F04DC019F
S11308A0FC01672F71917723E1F7329704C07C91A3
S11308B06D9370836291AE17BF07C8F30895F894DF
S10508C0FFCF64
S10508C20130FF
S9030000FC
